:0400000039EF5EF086
:10B8400095681200000E956E12008190819281948D
:10B850008196120081808182818481861200020E8D
:10B86000486E48064828D8B41200FBD7828E8CEC6C
:10B870005DF0829EABEC5DF01200828EABEC5DF071
:10B88000829EABEC5DF01200496E49C083FF82904E
:10B89000829282842FEC5CF082941200496E49C03F
:10B8A00083FF8280829282842FEC5CF0829412006B
:10B8B00056504EEC5CF02F0E4E6E000E4F6E63EC49
:10B8C0005EF0120056504EEC5CF0130E4E6E000E01
:10B8D0004F6E63EC5EF0120056504EEC5CF01A0EA8
:10B8E0004E6E000E4F6E63EC5EF0120056504EEC42
:10B8F0005CF0280E4E6E000E4F6E63EC5EF0120090
:10B9000056504EEC5CF0030E4E6E000E4F6E63EC24
:10B910005EF0120056504EEC5CF03D0E4E6E000E86
:10B920004F6E63EC5EF0120056504EEC5CF0360E3B
:10B930004E6E000E4F6E63EC5EF0120056504EECF1
:10B940005CF0820E4E6E000E4F6E63EC5EF01200E5
:10B9500056504EEC5CF0210E4E6E000E4F6E63ECB6
:10B960005EF0120056504EEC5CF00C0E4E6E000E67
:10B970004F6E63EC5EF01200F00E8118D8A4120036
:10B98000D7EC5CF0F00E8118D8A41200000E576EB0
:10B99000120020EC5CF08290828204D082842FEC32
:10B9A0005CF0829483BEFAD722EC5CF01200000EA9
:10B9B000496E04D0000E4A6E4A3EFED7492A490419
:10B9C000486E0C0E4864F6D712005704D8B4120023
:10B9D000D7EC5CF0F00E8118D8B41200CAEC5DF020
:10B9E000010E576E12000E0E5418D8A403D0C00ECC
:10B9F00044EC5CF01B0E54641200800E44EC5CF0CE
:10BA0000000E546E1200829440EC5DF0380E44EC4F
:10BA10005CF040EC5DF00F0E44EC5CF0C9EC5CF0C7
:10BA2000010E44EC5CF0C9EC5CF01200000E4D6EAF
:10BA30000CD04D50010DF3504A24D96EF4504B20D8
:10BA4000DA6EDF504EEC5CF04D2A4C504D5CD8B0B5
:04BA50001200EFD71A
:10BA550043617374656C6C6F203C330048656C6C96
:10BA65006F20576F726C64002E2E2E2D2D2D2E2ECD
:10BA75002E002E2E2E2D2D20000000020E486EA227
:10BA85000E496E4A680CD0A20E496E05D04A684A26
:10BA9500064A28D8A4FCD749064928D8A4F7D74888
:10BAA500064828D8B41200EFD7440E4A6E000E4B54
:10BAB5006E030E4C6E16EC5DF0542AF3EC5CF054FC
:10BAC5002AF3EC5CF0542AF3EC5CF0780E4E6E0031
:10BAD5000E4F6E63EC5EF0120048C04CF049C04D4D
:10BAE500F002D04C4A4D2A4CC0D9FF4DC0DAFFDFD9
:10BAF50050D8A4F7D748C04AF049C04BF04A1E4B6E
:10BB05001E4A4A4B2A4C504A24486E4D504B2049F8
:10BB15006E1200000E496E000E4A6E000E4B6E113D
:10BB2500D0000E4A6E08D0000E4B6E4B2A4B0448CF
:10BB35006EF90E4864FAD74A2A4A04486EC70E4879
:10BB450064F2D7492A4904486E030E4864E9D712BE
:10BB550000000E496E000E4A6E000E4B6E11D000AD
:10BB65000E4A6E08D0000E4B6E4B2A4B04486EF9F8
:10BB75000E4864FAD74A2A4A04486EC70E4864F24A
:10BB8500D7492A4904486E010E4864E9D712000BCB
:10BB9500D0010E07D0020E05D0030E03D0040E010E
:10BBA500D0640E556E0ED08150700AD8B4F7D7C048
:10BBB5000AD8B4F2D7600AD8B4EDD7300AD8B4E8B9
:10BBC500D7EFD76BEC5FF0FFEC5EF0566E5650AAE0
:05BBD500EC5EF012001F
:10BBDB0009092E2D2D2D2D200000002D2D2D2D2D65
:10BBEB0020002E2E2E2E2E20002E2E2E2E2D20001F
:10BBFB002E2E2D2D2D20002D2D2D2D2E20002D2DDB
:10BC0B002D2E2E20002D2E2E2E2E20002D2D2E2EC5
:10BC1B002E2000534F5300600ED36E070EB46EB53B
:10BC2B009E0F0EC16EF19E000E816E000E8A6E93FA
:10BC3B0068000E826E000E8B6E000E946E939093C6
:10BC4B00929394939622EC5CF003EC5DF025EC5C04
:10BC5B00F0F00E8118D8A4E5EC5CF05704D8A4F6EC
:10BC6B00D7BCEC5CF0F3D7586A576A566A556A54DE
:10BC7B006A550EF66EBA0EF76E000EF86E00EE6099
:10BC8B00F010EE2BF00900F5CFEEFFE550E150FA86
:10BC9B00E1DB0EF66EBB0EF76E000EF86E00EE01DA
:10BCAB00F010EE47F00900F5CFEEFFE550E150FA4A
:10BCBB00E1000EF86E000111EF5EF02FEC5CF0204E
:10BCCB000E4EEC5CF0542AF3EC5CF0542AF3EC5C73
:10BCDB00F0000E526E29D05250010DF3504E24D964
:10BCEB006EF4504F20DA6E2E0EDE18D8A408D03D1D
:10BCFB00EC5CF02E0E4EEC5CF0542AF3EC5CF05244
:10BD0B0050010DF3504E24D96EF4504F20DA6E2DA6
:10BD1B000EDE18D8A408D036EC5CF02D0E4EEC5C81
:10BD2B00F0542AF3EC5CF0522A4EC048F04FC04955
:10BD3B00F06FEC5DF05250506E516A4850505C49B8
:10BD4B00505158D8B01200C7D7536E2DD080EC5C31
:10BD5B00F01200A8EC5CF012009EEC5CF012006C90
:10BD6B00EC5CF0120062EC5CF0120094EC5CF012F4
:10BD7B00008AEC5CF0120058EC5CF0120076EC5C84
:10BD8B00F01200B2EC5CF01200010E44EC5CF0C956
:10BD9B00EC5CF0000E546E120057EC5DF012005389
:10BDAB00504EEC5CF012005350230AD8B4F5D7096F
:10BDBB000AD8B4EAD71A0AD8B4E4D7010AD8B4C659
:10BDCB00D7030AD8B4C6D7010AD8B4C6D7070AD83E
:10BDDB00B4C6D7010AD8B4C6D7030AD8B4C6D7019C
:10BDEB000AD8B4C6D70F0AD8B4C6D7010AD8B4C676
:10BDFB00D7D6D75804D8B409D016D0310E1200328A
:10BE0B000E1200330E1200410E12005550010AD8CB
:10BE1B00B4F4D7030AD8B4F3D7010AD8B4F2D707CE
:10BE2B000AD8B4F1D750D0020E5818D8B409D0168E
:10BE3B00D0340E1200350E1200360E1200420E12C6
:10BE4B00005550010AD8B4F4D7030AD8B4F3D7017C
:10BE5B000AD8B4F2D7070AD8B4F1D735D0030E58A5
:10BE6B0018D8B409D016D0370E1200380E1200397C
:10BE7B000E1200430E12005550010AD8B4F4D7032A
:10BE8B000AD8B4F3D7010AD8B4F2D7070AD8B4F159
:10BE9B00D71AD0040E5818D8B409D015D02A0E12C0
:10BEAB0000300E1200230E1200440E1200555001EA
:10BEBB000AD8B4F4D7030AD8B4F3D7010AD8B4F22A
:10BECB00D7070AD8B4F1D7FF0E1200000E486E0345
:10BEDB000E486401D012002AEC5CF07DD0819055A5
:10BEEB0004D8B481B803D0010E586E1200020E555F
:10BEFB0018D8B481BA03D0010E586E1200030E5538
:10BF0B0018D8B481BC03D0010E586E1200040E5524
:10BF1B0018D8B481BE6DD0010E586E1200819255A7
:10BF2B0004D8B481B803D0020E586E1200020E551D
:10BF3B0018D8B481BA03D0020E586E1200030E55F6
:10BF4B0018D8B481BC03D0020E586E1200040E55E3
:10BF5B0018D8B481BE4DD0020EDFD781945504D8CA
:10BF6B00B481B803D0030E586E1200020E5518D8C8
:10BF7B00B481BA03D0030E586E1200030E5518D8B5
:10BF8B00B481BC03D0030E586E1200040E5518D8A2
:10BF9B00B481BE2ED0030EC0D781965504D8B48180
:10BFAB00B803D0040E586E1200020E5518D8B48187
:10BFBB00BA03D0040E586E1200030E5518D8B48174
:10BFCB00BC03D0040E586E1200040E5518D8B48161
:10BFDB00BE0FD0040EA1D74850000AD8B47FD701AA
:10BFEB000AD8B49CD7030AD8B4B8D7010AD8B4D4AA
:05BFFB00D7482A6DD7B4
:020000040020DA
:08000000FFFFFFFFFFFFFFFF00
:020000040030CA
:0E000000FF081F1EFF8081FF0FC00FE00F40A2
:00000001FF
